:030000000214F5F2
:0C14F500787FE4F6D8FD75814202153CBA
:0E1DF700D2BBB6FEC8FDCBC4CEE5C1F9C8D53F
:101A2900121A3AEB54F0FF121A3AAF03EFC454F00A
:011A3900FFAD
:101A3A00E4FDFCAE05EFA806088002C333D8FC30EB
:101A4A00E704D2938002C293C292D2920DBD0001E2
:071A5A000CED64084C70DC88
:011A61002262
:101DD700AB07D2947FF8121A297FC87E00021E37FC
:101DE700AB07D2947FFA121A297FC87E00021E37EA
:0C1E1F007F01121DD77F027E00021D7F94
:101CDD00D2C77F30121DD77FC87E00121E377F0CF2
:0D1CED00121DD77FC87E00121E37021E1F79
:101BEF00EF14600A14600C14600E2403800FED24B0
:101BFF0090800DED24888008ED24988003ED2480DB
:0C1C0F00900027F0900027E0FF021DD796
:101C1B00900027EBF0A3EAF0A3E9F0900027E0FB9C
:101C2B00A3E0FAA3E0F9120423FF600F121DE79063
:0C1C3B000028E475F0011204B880E022DB
:101D3200900022EFF0D394095005E0243080069001
:0A1D42000022E02437FF121DE72203
:101C9A00900024EBF0A3EAF0A3E9F0121E1F7D01E5
:101CAA007F01121BEF900024E0FBA3E0FAA3E0F906
:031CBA00021C1BEE
:0519AE00900000EFF0C5
:1019B30078017C007D017BFF7A1D79F77E007F0E25
:1019C3001203DB900000E025E024FFF582E434FFFE
:1019D300F583E0FF121DE7900000E025E02400F509
:0B19E30082E43400F583E0FF021DE702
:0B1E3700EF1FAC0670011E4C70F6227D
:101D7F00AB07AA06EB1BAE0270011A4E60097FD0AB
:081D8F007E07121E3780ED22D1
:071E54000000122008031436
:1019EE00E4900012F0900011F0C2977F027E001278
:1019FE001E37900012E0C313F0309604E04480F0DE
:101A0E00D2977F027E00121E37900011E004F0E0A4
:0A1A1E00C3940840D4900012E0FFCA
:011A2800229B
:051ACD00900012EFF093
:101AD200E4A3F0C2977F027E00121E37900012E04C
:101AE200C313F09296D2977F027E00121E379000A7
:0C1AF20013E004F0E0C36480948840D747
:011AFE0022C5
:051B6200900010EFF0FF
:101B6700C2957F027E00121E37C2977F027E001247
:101B77001E37D2957F027E00121E37900010E0FFBD
:0A1B8700121ACD1219EED297C29582
:011B91002231
:101A6200900010EFF0A3EDF0C2957F027E00121EEF
:101A720037C2977F027E00121E37D2957F027E0008
:101A8200121E37900010E0FF121ACD900011E0FFF5
:081A9200121ACDD297C2952271
:0B18CC0090000BEBF0A3EAF0A3E9F0A2
:1018D700A37480F0A37407F0E4FD7F8E121A629060
:1018E700000FE0FF14F0EF602590000EE0FF90007E
:1018F7000BE0FBA3E475F0011204CEA9F0FA120481
:1019070023FD121A6290000EE02402F080D17D8040
:051917007F8E021A6240
:0B196B0090000BEBF0A3EAF0A3E9F002
:10197600A37481F0A37407F090000FE0FF14F0EF5A
:10198600602590000EE0FF121B6290000BE0FBA3A7
:10199600E475F0011204CEA9F0FAEF12043C9000AF
:0719A6000EE02402F080D1E5
:0119AD002217
:10000300C295C297E4FD7F8E121A62E4FD7F8012CF
:100013001A627DA67F90121A627D807F8E021A6219
:10167C00CAB1D6D3B3F5CABCBBAF00C9E3CFF1CD69
:10168C00B7B3F5CABCBBAF00CDA8D0C5B3F5CABCC7
:10169C00BBAF002020C7EBBDF82120002020C7EBFA
:1016AC00C9D4B5C800B6D4B7BDC3A6C2CC002020DF
:1016BC00D6A3D6DDBFC6BCBCD1A7D4BA202000327D
:1016CC0030002F00D0C7C6DA0020202020003A00BE
:1016DC00C7EBB0B44F4BBCFCBDF8C8EBB2CBB5A557
:0116EC0000FD
:1011CA00121CDD7BFF7A16797C121C9A7F2C7E0119
:1011DA00121D7F1200037BFF7A1E79541218CC125B
:1011EA001D667BFF7A167987121C9A7F2C7E011264
:1011FA001D7F121829121E42121D977BFF7A16793B
:10120A0094121C9A7F2C7E01121D7F1215811218CE
:10121A007B90005EE030E4F91208C31216099000D0
:10122A0072EFF0BF08031213C23010127BFF7A1656
:10123A00799F121C9AC2107FB87E0B121D7F301143
:10124A00127BFF7A1679A8121C9AC2117FB87E0BFC
:10125A00121D7F3013C27BFF7A1679B1121C9AC213
:0A126A00137FB87E0B121D7F80AECB
:1008C3007B017A00797E12196BE4FDFF121BEF7B2B
:1008D300FF7A1679BA121C1BE4FD7F01121BEF7B12
:1008E300FF7A1679CB121C1B900084E0FF7804A2D8
:1008F300E713D8FBFF121D32900084E0FF75F01060
:10090300120401AFF0121D327BFF7A1679CE121C4E
:100913001B900082E0FF7804A2E713D8FBFF121DAF
:1009230032900082E0FF75F010120401AFF0121D47
:10093300327BFF7A1679CE121C1B900081E0FF7880
:1009430004A2E713D8FBFF121D32900081E0FF756C
:10095300F010120401AFF0121D327BFF7A1679D02A
:10096300121C1B900083E0FF1219AEE4FD7F0212FC
:100973001BEF7BFF7A1679D5121C1B900080E0FFDA
:100983007804A2E713D8FBFF121D32900080E0FF2A
:1009930075F010120401AFF0121D327BFF7A167945
:1009A300DA121C1B90007FE0FF7804A2E713D8FB48
:1009B300FF121D3290007FE0FF75F010120401AFAB
:1009C300F0121D327BFF7A1679DA121C1B90007E1F
:1009D300E0FF7804A2E713D8FBFF121D3290007EDC
:1009E300E0FF75F010120401AFF0121D327BFF7AA5
:1009F3001679D5121C1BE4FD7F03121BEF7BFF7AD4
:060A03001679DC021C1B49
:100A09002020D5D2C8CB202000B5F7D5FBCAB1BC70
:100A1900E400B5F7D5FBC8D5C6DA00CDF5C7E5D5ED
:100A2900E400CDF5D3F1C6BC00D4F8D2E300C5A3E8
:100A3900C7ECC0F600BECFBDDC00C0EECAA4BBD473
:100A490000BBC6D3DAD0C000C1ACBDD30043480057
:100A5900C1ACBDD3CAA7B0DC00C7EBD2D4C6E4CBC6
:100A6900FBB7BDCABDC1AACFB500A1FA00202000BD
:100A79002020C7EBBDF82120002020C7EBC9D4B541
:100A8900C800B6D4B7BDC3A6C2CC00CAB1BCE4C9BC
:100A9900E8D6C3003A2000C8D5C6DAC9E8D6C300EB
:100AA900C4EA00D4C2004041424344454603FF0A18
:100AB90009FF0059FF0ADD01006103FF0A12FF0760
:100AC9007B01006101006103FF0A1BFF005E010059
:100AD9006101006107FF0A24FF0E50010061FF0A4E
:100AE900B607FF0A2BFF0E50010061FF0AB607FF88
:100AF9000A32FF0E50010061FF0AB607FF0A37FFED
:100B09000E50010061FF0AB607FF0A3EFF0E5001B1
:100B19000061FF0AB607FF0A43FF0E50010061FF9B
:0F0B29000AB607FF0A4AFF0E50010061FF0AB625
:10175C0043006EFF0AB64100730041005F00410078
:0A176C0074004100600041007100AC
:10160900E490000BF043B0787F01FE121E37E5B07D
:10161900647860597F0A7E00121D7FE5B0647860A6
:101629004C20B310E5B054786478604190000B7495
:1016390008F080F020B410E5B054786478602E90FA
:10164900000B7410F080F020B510E5B05478647880
:10165900601B90000B7420F080F020B610E5B054A8
:10166900786478600890000B7440F080F090000B6B
:02167900E0FF90
:01167B00224C
:010059002284
:100E50007BFF7A0A7951121C9A90005FE0FF33956C
:100E6000E0FE7C007D0D12047090006EE0FBA3E0BC
:100E7000FAA3E02FF9EA3EFA9000011204E4121CF2
:100E80001B7D037F02121BEF90005FE0FF3395E0B4
:100E9000FE74AF2FF582740A3EF583E49375F06417
:100EA00084FF121D3290005FE0FF3395E0FE74AFC7
:100EB0002FF582740A3EF583E49375F06484E5F0BF
:100EC00075F00A84FF121D3290005FE0FF3395E059
:100ED000FE74AF2FF582740A3EF583E49375F00A31
:100EE00084AFF0121D327BFF7A0A7956121C1B90D8
:100EF000005FE0FF3395E0FE74AF2FF582740A3E89
:100F0000F583E493FF121DAE9000027468F07B013C
:100F10007A0079027D0112191C7FF47E01121D7F77
:100F2000301206120C50C212227BFF7A0A79591233
:100F30001C9AE4FD7F02121BEF7BFF7A0A79621292
:090F40001C1B7FB87E0B121D7F03
:010F49002285
:100B3800E4900000F0A3F0121E1F90006EE0FBA3EB
:100B4800E0FAA3E0F9120423FF900071F09000731B
:100B5800E0900000F0C3EF64809484406EE4A3F05A
:100B6800900001E0FFC394044003020C4F7D011282
:100B78001BEF90005FE0FF900000E07BFFB50706E9
:100B88007A0A797380047A0A7976121C1B9000001D
:100B9800E075F00DA4FF90006EE0FBA3E0FAA3E07F
:100BA8002FF9EA35F0FA9000011204E4121C1B90A8
:100BB8000000E004F0900071E0FF900000E0B5074D
:100BC80002E4F0900001E004F08095E4900001F068
:100BD800900071E0FD3395E0FC900001E0FFC39DBB
:100BE800EC6480F8748098505E7D01121BEF9000D1
:100BF8005FE0FF900000E07BFFB507067A0A797393
:100C080080047A0A7976121C1B900000E075F00DBA
:100C1800A4FF90006EE0FBA3E0FAA3E02FF9EA3509
:100C2800F0FA9000011204E4121C1B900000E0048A
:100C3800F0900071E0FF900000E0B50702E4F0904A
:070C48000001E004F08089C7
:010C4F002282
:10059600EF700302077A90006EE0FBA3E0FAA3E097
:1005A600F9120423900071F0EF24F870030206504C
:1005B60024E8607324E060242430600302071D9061
:1005C600005FE014F0E0C364809480400302071DDE
:1005D600900071E01490005FF002071D90000A126F
:1005E60004E4EB8A83898279616401700A74616527
:1005F60082700474006583700302071D90006EE02C
:10060600FBA3E0FAA3E0F990000A1204E490006E5E
:10061600EBF0A3EAF0A3E9F0900060E090005FF051
:10062600900074E002071990005FE004F0900071FA
:10063600E0FF90005FE0FEC3EF6480F8EE64809810
:10064600500302071DE4F002071D90005FE0FF3330
:1006560095E0FE7C007D0D12047090006EE0FBA319
:10066600E0FAA3E02FF9EA3EFA9000041204E4EB64
:100676008A838982F4700A745965827004740065ED
:1006860083602390006EE0FBA3E0FAA3E0F99000FC
:100696005FE075F00DA4FFE92FF9E43AFA90000443
:1006A6001204E412051490005FE0FF3395E0FE7C2F
:1006B600007D0D12047090006EE0FBA3E0FAA3E04B
:1006C6002FF9EA3EFA9000071204E4EB8A83898246
:1006D60079616401700A74616582700474006583CF
:1006E600603590006EE0FBA3E0FAA3E02FF9EA3E46
:1006F600FA9000071204E490006EEBF0A3EAF0A370
:10070600E9F0900073E0A3F090005FE0A3F0E490BE
:10071600005FF0900073F0900073E0FF3395E0FE09
:10072600EF2403FFE43EFE90005FE0FDFB3395E01F
:10073600FAD3EB9FEE6480F8EA6480984005900057
:1007460073EDF0900071E0FF90005FE0FE2FFF90E8
:100756000073E0FDC3EF9DD3648094834013D3EE12
:100766006480F8ED648098400890005FE090007324
:05077600F0120B382217
:1013C200120B38121609900072EFF090006EE0FBDB
:1013D200A3E0FAA3E0F990000A1204E4EB8A8389FD
:1013E200827B017A0079616401700A74616582709E
:1013F20004740065837008900072E06440605C30A1
:1014020010187BFF7A0A7979121C9AC2107FB87E73
:101412000B121D7F90007274FFF03011187BFF7A5F
:101422000A7982121C9AC2117FB87E0B121D7F901C
:10143200007274FFF03013187BFF7A0A798B121C4A
:101442009AC2137FB87E0B121D7F90007274FFF058
:0C145200900072E0FF1205960213C52204
:10127400900004EFF0121E1F7D02E4FF121BEF7BAF
:10128400FF7A0A7994121C1B7D017F02121BEF90D6
:101294000080E0FF75F00A120401FF121D32900075
:1012A40080E0FF75F00A120401AFF0121D327BFFDB
:1012B4007A0A799D121C1B90007FE0FF75F00A12D8
:1012C4000401FF121D3290007FE0FF75F00A120442
:1012D40001AFF0121D327BFF7A0A799D121C1B901C
:1012E400007EE0FF75F00A120401FF121D32900027
:1012F4007EE0FF75F00A120401AFF0121D32900077
:1013040004E070047D018009900004E0B401077DCD
:07131400037F02121BEF2210
:10077B00E4900002F0A3F07B017A00797E12196BF2
:10078B00E490007EF07F0F121DD790007FE0FF7585
:10079B00F01012040175F00AA4FEEF75F0101204AC
:1007AB0001AFF0EE2F90007FF0A3E0FF75F0101279
:1007BB00040175F00AA4FEEF75F010120401AFF0FE
:1007CB00EE2F900080F00208B8121609900003EF8C
:1007DB00F064087053900002E004F0E0640270488B
:1007EB007F0C121DD790007FE0FF75F00A120401F9
:1007FB00C454F0FEEF75F00A120401AFF0EE2F9027
:10080B00007FF0A3E0FF75F00A120401C454F0FE60
:10081B00EF75F00A120401AFF0EE2F900080F07B21
:10082B00017A00797E0218CC900003E0FFB4101718
:10083B00900002E0FE7006900080E004F0EEB40140
:10084B000690007FE004F0EFB42017900002E0FF69
:10085B007006900080E014F0EFB4010690007FE08A
:10086B0014F0900003E0B440057F0C021DD79000FC
:10087B007FE0D3648094BB4002E4F090007FE0C340
:10088B00648094805003743BF0900080E0D36480CC
:10089B0094974002E4F0900080E0C3648094805011
:1008AB00037417F0900003E070030207D49000026A
:0808BB00E0FF1212740207D4E1
:10110E0090000BEFF0121E1F7D02E4FF121BEF7B0F
:10111E00FF7A0A79A0121C1B7D017F02121BEF7F42
:10112E0002121D32E4FF121D32900084E0FF75F0B2
:10113E000A120401FF121D32900084E0FF75F00ABE
:10114E00120401AFF0121D327BFF7A0A79A9121C2C
:10115E001B900082E0FF75F00A120401FF121D328F
:10116E00900082E0FF75F00A120401AFF0121D32FA
:10117E007BFF7A0A79AC121C1B900081E0FF75F0A0
:10118E000A120401FF121D32900081E0FF75F00A71
:10119E00120401AFF0121D3290000BE070047D02BC
:1011AE00801490000BE0B401047D04800990000BC4
:0C11BE00E0B402077D067F02121BEF2246
:10005E00E4900002F0A3F07B017A00797E12196B16
:10006E007F0F121DD7900081E0FF75F01012040172
:10007E0075F00AA4FEEF75F010120401AFF0EE2F2A
:10008E00900081F0A3E0FF75F01012040175F00AE4
:10009E00A4FEEF75F010120401AFF0EE2F90008267
:1000AE00F0900084E0FF75F01012040175F00AA4C0
:1000BE00FEEF75F010120401AFF0EE2F900084F0F9
:1000CE00020300121609900003EFF06408600302A9
:1000DE00024A900002E004F0E06403600302024A68
:1000EE007F0C121DD7900082E0FF64016004EFB414
:1000FE00020D900082E0240CF0900084E014F09049
:10010E000082E0FB3395E0FAEB2401FFE43AFE7C3B
:10011E00007D031204707D05120482AC06AD07EB60
:10012E0025E0FFEA33FE900081E0FB3395E0FAEB29
:10013E002401FBE43ACB2FFFEB3ECF2DCF3CFE90BC
:10014E000084E0FDFB3395E0FAEF2BFFEE3AFEED77
:10015E00A2E713A2E713FD3395E0FCEF2DFFEE3C73
:10016E00FEE0F975F064120401FD3395E0FCC3EF77
:10017E009DFBEE9CFAE9FF3395E0FE7C017D90122B
:10018E000482EF2BFFEE3AFE7C007D071204829074
:10019E000083EDF0900081E0FF75F00A120401C4B7
:1001AE0054F0FEEF75F00A120401AFF0EE2F90003E
:1001BE0081F0A3E0FF75F00A120401C454F0FEEFC3
:1001CE0075F00A120401AFF0EE2F900082F090004D
:1001DE0084E0FF75F00A120401C454F0FEEF75F0CE
:1001EE000A120401AFF0EE2F900084F0900083E02D
:1001FE00FF75F00A120401C454F0FEEF75F00A12F6
:10020E000401AFF0EE2F900083F07B017A007904A9
:10021E0012196B900081E0900007F0900082E09040
:10022E000008F0900083E0900009F0900084E090C8
:10023E00000AF07B017A0079040218CC900003E0EA
:10024E00FFB41021900002E0FE7006900084E004DE
:10025E00F0EEB40106900082E004F0EEB4020690D7
:10026E000081E004F0EFB42021900002E0FF700660
:10027E00900084E014F0EFB40106900082E014F0D8
:10028E00EFB40206900081E014F0900003E0B44059
:10029E00057F0C021DD7900084E0D3648094E34068
:1002AE0002E4F0900084E0C3648094805003746391
:1002BE00F0900082E0D36480948C40037401F0903F
:1002CE000082E0C3648094815003740CF09000812E
:1002DE00E0D36480949F40037401F0900081E0C3EA
:1002EE00648094815003741FF0900003E070030249
:0D02FE0000D1900002E0FF12110E0200D1AD
:101D6600759850438E40538EFE53890F758BBF7501
:091D76008DFFC2ABD299D28E227E
:03002300021D4C6F
:101D4C00C0E0C083C08230980AC29890008DE5999B
:0A1D5C00F0D214D082D083D0E03220
:081E4C003099FDC2998F992223
:10002600900085EBF0A3EAF0A3E9F0900085E0FBF1
:10003600A3E0FAA3E0F91204236017900085A3E475
:1000460075F0011204CEA9F0FA120423FF121E4C19
:0300560080D9222C
:0D1E0500C284C2C2D2C2C2C2D284D2C222E2
:0C1E2B00C2837F0A7E00121E37D2832281
:0A1E4200C282C2C1121E2B021E054F
:101D9700121E2B121E0520C6FD30C6FDD2C120C65D
:071DA700FD30C6FDC2C122A0
:101776004100324041005E0041005D0045005812C4
:1017860034567890450053123456789060200033D2
:101796000000000000000000000000000000000043
:1017A6000000000000000000000000000000000033
:0E17B600C112C110C111C11301200001210098
:0A16ED00EBF0A3EAF0A3E9F0C290CD
:1016F7008F20A2079286D287A285920FC287A20661
:101707009286D287A285920EC287A2059286D28739
:10171700A285920DC287A2049286D287A285920CD7
:10172700C287A2039286D287A285920BC287A202A2
:101737009286D287A285920AC287A2019286D28711
:10174700A2859209C287A2009286D287A2859208B3
:05175700C287AF212252
:071DC300121DCA7DFF7FE144
:0C1DCA00C2901216F7AF051216F7D29067
:011DD60022EA
:0C1E1200C2901216F7E4FF1216F7D290EF
:011E1E0022A1
:031B310090002EF3
:101B34001216EDE4FE900031E0FFEEC39F501CE46A
:101B4400FF1216F790002EE0FBA3E0FAA3E0F98E53
:0D1B540082758300EF12044E0E80DAD290ED
:011B61002261
:031A9A0090002891
:101A9D001216EDAE07E4FD90002BE0FFEDC39F5055
:101AAD001A900028E0FBA3E475F0011204CEA9F012
:0F1ABD00FA120423FF1216F70D80DCD290AF0649
:011ACC0022F7
:10158100C2917D737F50121DCAD291D290C287C27F
:101591009190005EE04404F04402F07D037F231249
:1015A1001DCA900032E0FD7F25121DCA7D277F26CE
:1015B100121DCA7D017F21121DCA7F22121DCA7B05
:1015C100017A00795390002B7405F07F2A121A9A40
:1015D1007D057F3D121DCA7D017F3C121DCA7DFF25
:1015E1007FE2121DCA7B017A00795890002B7405A5
:1015F100F07F30121A9A7D3A7F24121DC3121B927A
:08160100D291438F20D2AF22E9
:101CBD00C2917D0E7F20121DCA7D707F27121DC31C
:101CCD00D29190005EE0547FF054BFF054F7F022B3
:101B9200C2917D0F7F20121DCA7D707F27121DCA40
:101BA2007DFF7FE2121DCAD29190005EE04480F078
:0F1BB20054BFFFF0E490005DF0EF54F7A3F02272
:10187B00E4FC7B017A0079009000317405F07F1055
:10188B00121B317F1C121E12EF6401702CFC74585A
:10189B002CF582E43400F583E0FE74002CF582E431
:1018AB003400F583E0B5060990005EE04410F0804B
:1018BB000280060CECB405D62290005EE054EFF0EB
:0118CB0022FA
:10191C00900024EBF0A3EAF0A3E9F0AE0590005E92
:10192C00E030E703121CBD90005EE04440F054DF51
:10193C00F0C29190002430E211E0FBA3E0FAA3E0A6
:10194C00F990002BEEF07FA0800FE0FBA3E0FAA350
:0F195C00E0F990002BEEF07FB0121A9AD2912290
:101C71007F60121E1290005DEFF0D3942040051298
:101C81001B92800D90005DE0900031F07F61121B8E
:091C91003190005EE054F7F022EE
:101DAE00AE07C291EE547FFD7F25121DCAEE547F01
:051DBE00900032F0224C
:03005B0002102E62
:10102E00C0E0C083C082C0D075D000C000C001C077
:0B103E0002C003C004C005C006C007CC
:10104900538FDF7F07121E12AC077F17121E1290F3
:10105900002CEFF0AD047F27121DCAEC30E512B267
:10106900C090005EE054BFF04420F030E103121B51
:1010790092EC30E40FB2CD121DC690005EE054BF71
:10108900F054DFF0EC30E650B2B290005EE0440874
:10109900F07B017A007933121C7190005DE0FFB496
:1010A9000109900033E0B43102D210EFB401099084
:1010B9000033E0B43202D21190005DE0B40109902E
:1010C9000033E0B43002D21390005DE0B40109901E
:1010D9000033E0B46802D212EC30E003121CBD9078
:0C10E900002CE030E103121B92438F202A
:1010F500D007D006D005D004D003D002D001D0004F
:09110500D0D0D082D083D0E032BA
:100F4A003A0440D0121432801716180419021A7B78
:100F5A0003060C0C15023E00700071017211730930
:100F6A00A20211007A207B1C7C287D3C7E557F687A
:100F7A00807681808288838F849685A386AF87C492
:100F8A0088D789E813E7000010000D001420A50592
:100F9A00AB072475256326A59F78A068A103A6DF61
:100FAA00A7DFA8F0A990AA9413E50E610F4B1602C9
:100FBA001E27210222912907330B350B371D387161
:100FCA00392A3C784D404E20695D6B4074198D4F2B
:100FDA008E008F0090009100920096009A80B08453
:100FEA00B10CB20EB382B80A431444F045344658E1
:100FFA004728483A59885A885B445C675D495E0EBF
:10100A00640465206605940495086C0A6D554F8042
:10101A00508051005222535E54806E116F9F5500CA
:04102A005640589E36
:10182900C2C3C2C47F0A7E00121D7FD2C47F0A7E52
:1018390000121D7F7D807F12121C47E4900000F08A
:10184900900000E0FE25E0244AF582E4340FF58398
:10185900E493FFEE25E0244BF582E4340FF583E4AD
:1018690093FD121C47900000E004F0E0C39472401D
:01187900CF9F
:01187A00224B
:031E5B00D2C322CD
:031E5E00C2C322DA
:101CFA00D281D2807F017E00121E37C2807F017E90
:0D1D0A0000121E37C2817F017E00021E37CD
:101D1700C2807F017E00121E37D2817F017E0012B2
:0B1D27001E37D2807F017E00021E37B5
:0517C500900003EFF0AD
:1017CA00E4A3F0F0900003E030E704D2808002C284
:1017DA00807F017E00121E37D2817F017E00121E99
:1017EA0037C2817F017E00121E37C2807F017E00D0
:1017FA00121E37900003E025E0F0A3E004F0E0C3F6
:10180A00940840C0D2807F017E00121E37D2817FA9
:0F181A00017E00121E37C2817F017E00021E3741
:0B131B00900075EBF0A3EAF0A3E9F0EE
:10132600E4A3F0A3F0A3F0A3F0A3F0A3F090007859
:10133600F0A37407F0D2817F017E00121E37A280CF
:10134600E4FF3390007ACFF0A3EFF0C2817F017EF5
:1013560000121E37900078A3E0FFA3E0FEA3E0A8EA
:1013660007088005C333CE33CED8F9FF90007CE062
:101376004EF0A3E04FF0900079E024FFF090007863
:10138600E034FFF0C3E06480948050A9D2807F01EE
:101396007E00121E37D2817F017E00121E37C28167
:1013A6007F017E00121E3790007CA3E0FF9000753F
:0C13B600E0FBA3E0FAA3E0F9EF02043C26
:101C4700900001EFF0A3EDF0121CFA7F421217C5C6
:101C5700900001E0FF1217C5900002E0FF1217C5C0
:0A1C6700121D177F0A7E00021E37CF
:051AFF0090008BEFF0E8
:101B0400121CFA7F421217C590008BE0FF1217C512
:101B1400121D17121CFA7F431217C57B017A007934
:0C1B24008C12131B121D1790008CE0FFA8
:011B30002292
:101BC100B4AEBFDAB4ABCDBC2E2E00B7A2CBCDB331
:101BD100C9B9A62E2E00CEDECFDFB4ABCDBC3430DA
:0E1BE100434800B7A2CBCDCDBCC6AC2E2E0023
:10145E007BFF7A1B79C1121C9A121D977F01121EF7
:10146E004C7FFE121E4CE490008AF0E4900088F04F
:10147E00C2C290008EE5A0F0E0FF121E4CD2C2C296
:10148E00C290008EE5A0F0E0FF121E4CD2C2C2C286
:10149E00D2C2C2C2D2C2900088E004F0E0C394A0CF
:1014AE0040CEE4900088F0C2C2D2C2C2C2D2C2C242
:1014BE00C2D2C2C2C2D2C2900088E004F0E0B4A090
:1014CE00E690008AE004F0E0C39478409E7FFE121E
:1014DE001E4C7F01121E4C7BFF7A1B79CC121C9A7C
:0714EE007FF47E01021D7F67
:100D5300E4900089F07BFF7A1B79D7121C9A121D4D
:100D6300977523017524FE90005EE020E6F97B0071
:100D73007A0079237D0212191CE490008AF0E49032
:100D83000088F0C2C2900089E0FF04F074232FF8BA
:100D9300A6A0E0B4201BE4F090005EE020E6F97B1F
:100DA300007A0079237D2012191C7F027E00121D18
:100DB3007FD2C2C2C2900089E0FF04F074232FF8EF
:100DC300A6A0E0B4201BE4F090005EE020E6F97BEF
:100DD300007A0079237D2012191C7F027E00121DE8
:100DE3007FD2C2C2C2D2C2C2C2D2C2900088E004C1
:100DF300F0E0C394A0408CE4900088F0C2C2D2C259
:100E0300C2C2D2C2C2C2D2C2C2C2D2C2900088E09F
:100E130004F0E0B4A0E690008AE004F0E0C3947824
:100E23005003020D817523FE75240190005EE020BE
:100E3300E6F97B007A0079237D0212191C7BFF7A85
:0D0E43001B79CC121C9A7FF47E01021D7FEA
:100C50007BFF7A1B79E4121C9A121D97752301758C
:100C600024FE9000897404F0E4900022F0A3F09038
:100C7000008AF0E4900088F0C2C2900089E0FF048E
:100C8000F074232FF8A6A0E0641C702D7404F0907B
:100C90000022E0FCA3E0FDECF5258D26E004F070D9
:100CA00006900022E004F090005EE020E6F97B0070
:100CB0007A0079237D1C12191CD2C2C2C29000890D
:100CC000E0FF04F074232FF8A6A0E0641C702D74DC
:100CD00004F0900022E0FCA3E0FDECF5258D26E079
:100CE00004F07006900022E004F090005EE020E640
:100CF000F97B007A0079237D1C12191CD2C2C2C272
:100D0000D2C2C2C2D2C2900088E004F0E0C394A074
:100D10005003020C78E4900088F0C2C2D2C2C2C272
:100D2000D2C2C2C2D2C2C2C2D2C2900088E004F013
:100D3000E0B4A0E690008AE004F0E0C394785003A9
:100D4000020C737BFF7A1B79CC121C9A7FF47E0114
:030D5000021D7F02
:101501000211CAE493A3F8E493A34003F68001F225
:1015110008DFF48029E493A3F85407240CC8C333EB
:10152100C4540F4420C8834004F456800146F6DFBA
:10153100E4800B010204081020408090175CE47ED7
:10154100019360BCA3FF543F30E509541FFEE493AF
:10155100A360010ECF54C025E060A840B8E493A376
:10156100FAE493A3F8E493A3C8C582C8CAC583CAA1
:10157100F0A3C8C582C8CAC583CADFE9DEE780BE59
:0117C4000024
:10030B00E709F608DFFA8046E709F208DFFA803ED4
:10031B0088828C83E709F0A3DFFA8032E309F608C1
:10032B00DFFA8078E309F208DFFA807088828C8329
:10033B00E309F0A3DFFA806489828A83E0A3F608DD
:10034B00DFFA805889828A83E0A3F208DFFA804CB7
:10035B0080D280FA80C680D4806980F2803380108E
:10036B0080A680EA809A80A880DA80E280CA8033F7
:10037B0089828A83ECFAE493A3C8C582C8CCC5836F
:10038B00CCF0A3C8C582C8CCC583CCDFE9DEE7803F
:10039B000D89828A83E493A3F608DFF9ECFAA9F0BE
:1003AB00EDFB2289828A83ECFAE0A3C8C582C8CC14
:1003BB00C583CCF0A3C8C582C8CCC583CCDFEADE2D
:1003CB00E880DB89828A83E493A3F208DFF980CC8F
:1003DB0088F0EF60010E4E60C388F0ED2402B40488
:1003EB000050B9F582EB2402B4040050AF2323452F
:0603FB00822390035B73F6
:10040100C2D530F707B2D563F0FF05F030E70CB283
:10041100D5F4048463F0FF05F080018430D502F443
:020421000422B3
:10042300BB010689828A83E0225002E722BBFE02D7
:09043300E32289828A83E493220A
:10043C00BB010689828A83F0225002F722BBFE019F
:02044C00F32299
:10044E00F8BB010DE58229F582E5833AF583E8F0E4
:10045E00225006E92582C8F622BBFE05E92582C890
:02046E00F22278
:10047000EF8DF0A4A8F0CF8CF0A428CE8DF0A42EA0
:02048000FE225A
:10048200C2D5EC30E709B2D5E4C39DFDE49CFCEE95
:1004920030E715B2D5E4C39FFFE49EFE12051AC3EE
:1004A200E49DFDE49CFC800312051A30D507C3E4E9
:0604B2009FFFE49EFE2204
:1004B800C5F0F8A3E028F0C5F0F8E58215827002CF
:0604C8001583E038F0226C
:1004CE00A3F8E0C5F025F0F0E582158270021583E1
:0604DE00E0C838F0E8223E
:1004E400BB010DE58229F582E5833AF5830205789F
:1004F4005007E92582F802056FBBFE07E92582F85B
:10050400020581E58229F582E5833AF58302058AAD
:060514008A838982E47372
:10051A00BC000BBE0029EF8DF084FFADF022E4CCC5
:10052A00F875F008EF2FFFEE33FEEC33FCEE9DEC8E
:10053A00984005FCEE9DFE0FD5F0E9E4CEFD22EDD4
:10054A00F8F5F0EE8420D21CFEADF075F008EF2F1E
:10055A00FFED33FD4007985006D5F0F222C398FD0F
:05056A000FD5F0EA22AC
:09056F00E6FB08E6FA08E6F922B1
:09057800E0FBA3E0FAA3E0F92284
:09058100E2FB08E2FA08E2F922AB
:0C058A00E493FB740193FA740293F922CD
:00000001FF
